:020000040800F2
:100000009006002045010008F12000088B1B000825
:1000100055200008090400089D2600080000000083
:10002000000000000000000000000000F5200008B3
:100030000B04000800000000F3200008F72000086F
:100040005F0100085F0100085F0100085F01000810
:100050005F0100085F0100085F0100085F01000800
:100060005F0100085F0100085F0100085F010008F0
:100070005F0100085F0100085F0100085F010008E0
:100080005F0100085F0100085F0100085F010008D0
:100090005F0100085F0100085F0100085F010008C0
:1000A0005F0100085F0100085F0100085F010008B0
:1000B0005F0100085F0100085F0100085F010008A0
:1000C0005F0100085F0100085F0100085F01000890
:1000D0005F010008912600085F0100085F01000829
:1000E0005F0100085F0100085F0100085F01000870
:1000F0005F0100085F0100085F0100085F01000860
:100100005F0100085F0100085F0100085F0100084F
:100110005F0100085F0100085D2100085F01000821
:100120005F0100085F0100085F0100085F0100082F
:10013000DFF80CD000F04CF900480047A527000874
:10014000900600200648804706480047FEE7FEE785
:10015000FEE7FEE7FEE7FEE7FEE7FEE7FEE7FEE777
:100160005921000831010008D2B201E000F8012B4A
:10017000491EFBD270470022F6E710B513460A4627
:1001800004461946FFF7F0FF204610BDF0B480EAA0
:100190000102D40F4200B2EB410F02D202460846E0
:1001A00011464A0042D0C30DDDB2C1F3C752AD1AA9
:1001B000202D35DAC1F3160141F4000204B1524298
:1001C000C5F1200602FA06F12A411044B3EBD05FD4
:1001D00023D0C4B1012DA0EBC35009DCF0BC4FF01B
:1001E000004202EAC352DBB200F5000000F0C1B8E1
:1001F000400000F1807000EBC350A0F1807040EA35
:10020000D170490009E0490841EAC071A0EBC35030
:1002100000F50000400800EBC350F0BC00F0A0B8AF
:100220006142012202EB4101001BF6E7F0BC70477E
:1002300081F00041AAE780F00040A7E780EA0102D0
:1002400010B502F00043400022D04A001FD0010E3A
:1002500001EB1261C0F35600C2F3560240F40000F5
:1002600042F40002A0FB022000047F39140400D0F5
:10027000401C50EA124001D44000491EC2B20C0694
:1002800004EBD010401C4008802A02D003E000207C
:1002900010BD20F00100002900DA0020184310BD35
:1002A00030B480EA010202F0004530F0004221F053
:1002B000004013D090B1C30DD40DC2F31601C0F3AA
:1002C0001600E41A41F4000140F400027D3491422A
:1002D00001D3641C00E04900002C02DA30BC00208D
:1002E00070474FF400000023914201D3891A034361
:1002F00040084FEA4101F7D151B1914202D14FF08C
:10030000004105E002D24FF0010101E06FF0010170
:1003100003EBC450284430BC00F022B8C10F80EA7F
:10032000E0700844CA079623002100F022B800F0CC
:10033000004220F00040C10DC0F3160040F4000060
:100340007F2901DA00207047962903DCC1F196016C
:10035000C84001E096398840002AF4D040427047F6
:100360000029A8BF7047401C490008BF20F00100C9
:10037000704710B4B0FA80FC00FA0CF050EA0104A7
:1003800004BF10BC704749B1CCF1200421FA04F439
:1003900011FA0CF118BF012121430843A3EB0C0112
:1003A000CB1D4FEA00614FEA102042BF002010BC75
:1003B000704700EBC35010440029A4BF10BC704725
:1003C000401C490008BF20F0010010BC704700002D
:1003D000064C074D06E0E06840F0010394E8070092
:1003E00098471034AC42F6D3FFF7A6FE002B000866
:1003F000202B000801220249024801F053BB0000F3
:100400000C00002018020020FEE7704702004FF0A9
:10041000000047F6FF710CD0012A0CD0022A0CD044
:10042000032A05D106480268506A5162081A00B2D0
:1004300070470448F7E70448F5E70448F3E700008D
:10044000B0000020F80000206800002040010020DB
:1004500000B503460020FFF7D9FF40421880012075
:10046000FFF7D4FF404258800220FFF7CFFF98806B
:100470000320FFF7CBFFD88000BD72B6FEE710B5B2
:1004800090F821100022022905D00421816380F810
:100490002020012010BD01680B6823F00E030B60C3
:1004A00001680B6823F001030B6090F84030C46BC7
:1004B000012101FA03F3636080F8211080F8202005
:1004C000104610BD2DE9F05F90F82110002402299C
:1004D00003D004218163012485E001680A6822F0C9
:1004E0000E020A6001680A6822F001020A603F4EAB
:1004F0003E4FB215DFF8F4C0DFF8F090DFF8ECA063
:10050000DFF8E8B0DFF8E4E00168783F1301150296
:10051000ACF1640CA9F15009AAF13C0AABF1280B2B
:10052000AEF1140E4FF48018B14227D9B9420ED063
:10053000614512D049451DD0514518D0594518D0B4
:10054000714501D1424615E0294EB14201D1012247
:1005500010E0274E1436B14201D110220AE0244E99
:100560002836B14206D0224A3C32914201D11A4685
:1005700000E02A461E49091F0A602BE0B94213D049
:10058000614517D0494522D051451DD059451DD050
:10059000714501D142461AE0B14202D14FF080725A
:1005A00015E0134EB14201D1012210E0104E143675
:1005B000B14201D110220AE00D4E2836B14206D0D8
:1005C0000B4A3C32914201D11A4600E02A460749C3
:1005D00080394A60012180F82110002180F8201024
:1005E000416B01B188472046BDE8F09F8000024082
:1005F000080402402DE9F84FDFF8C8910024A9F162
:10060000040B23460F2709F1040AABF1040ED1E0D5
:100610000125A54006EA0502AA4276D1DFF8A8C165
:100620004E68A6EB0C0866452BD00DDC032E34D0AB
:1006300005DC36B3012E19D0022E2FD11BE0112E6E
:1006400016D0122E2AD119E0B8F5881F19D006DC71
:10065000B8F5803F15D0B8F5801F1FD111E0B8F56F
:10066000001F0ED0B8F5041F18D10AE0CB6815E0C2
:10067000CB681B1D12E0CB6808330FE0CB680C334E
:100680000CE08B682BB1012B4FF0080303D04561C0
:1006900004E0042302E0056100E00023FF2A01D802
:1006A000064601E000F104064FEA840501D9A5F1F0
:1006B0002005D6F8008007FA05FC28EA0C0803FAA2
:1006C00005F548EA0508C6F800804D68ED0070D5CC
:1006D0003E4DAE6946F00106AE61AD6924F00306F9
:1006E00005F0010500953A4D06EB050CDCF80850C5
:1006F000A607360F07FA06F825EA0805DFF8D480C2
:10070000404503D14FF0000825E052E0DFF8C880F3
:10071000404502D14FF001081DE0DFF8C0804045A0
:1007200002D14FF0020816E0DFF8B480404502D154
:100730004FF003080FE0DFF8AC80404502D14FF0E6
:10074000040808E0DFF8A080404502D14FF005081A
:1007500001E04FF0060808FA06F848EA0508CCF868
:1007600008804D68D9F80060ED024D4601D516436A
:1007700000E096432E604D68DAF80060AD02554601
:1007800001D5164300E096432E604D68DBF800600B
:10079000AD035D4601D5164300E096432E604D68DB
:1007A000DEF80060ED03754601D5164300E0964380
:1007B0002E60641C0A681646E2407FF429AFBDE84B
:1007C000F88F0000080401400000111000100240E2
:1007D0000000014000080140000C014000100140F1
:1007E0000014014000180140001C014080680840CE
:1007F00000D0012070470000014880687047000069
:10080000100000200248816802781144816070471E
:1008100010000020074810B5016841F01001016088
:10082000032000F06DF80E2000F006F800F024F828
:10083000002010BD0020024070B50D4D04464FF45D
:100840007A712878B1FBF0F00A490968B1FBF0F041
:1008500000F0D4FA48B9102C07D200222146501ECD
:1008600000F02EF800206C6070BD012070BD00000B
:10087000100000201C000020094808B5816941F0E3
:1008800001018161816901F001010091C16941F0BB
:100890008051C161C06900F08050009008BD000027
:1008A00000100240002809DB00F01F0201219140E6
:1008B0004009800000F1E020C0F8001170470000FE
:1008C000F0B40E4B1B680C46C3F30223C3F10705BB
:1008D000042D00D90425191D072901D2002300E0A9
:1008E000DB1E012606FA05F1491E214099409E4073
:1008F000761E16403143F0BC01F0D1BE0CED00E095
:10090000064900F0070208684FF6FF03184040EA66
:100910000220034A10430860704700000CED00E01D
:100920000000FA052DE9F0470F46050061D0434E5F
:10093000306800F00700B84209D2306820F00700A4
:1009400038433060306800F00700B84251D1286861
:100950003B4C810712D5400703D5606840F4E06046
:1009600060602878000703D5606840F460506060DC
:100970006068A96820F0F000084360602878C0072C
:1009800028D06868012810D02168022810D0890773
:1009900000292EDA616821F0030101436160FFF74D
:1009A0002BFF804641F288390DE021688903EFE78B
:1009B0008901EDE7FFF720FFA0EB0801494502D9C7
:1009C0000320BDE8F0876068696800F00C00B0EBB8
:1009D000810FEFD1306800F00700B8420BD93068C2
:1009E00020F0070038433060306800F00700B8425C
:1009F00001D00120E5E72878400705D56068E9685F
:100A000020F4E060084360602878000706D560683D
:100A1000296920F4605040EAC100606000F038F8B5
:100A20006168084AC1F30311515CC8400649086077
:100A300006480068FFF700FF0020C2E700200240E0
:100A400000100240E62A00081C00002014000020CC
:100A50000448054900684968044AC1F30221515C11
:100A6000C84070471C00002000100240F62A000811
:100A70000448054900684968044AC1F3C221515C31
:100A8000C84070471C00002000100240F62A0008F1
:100A90000E4A51680E4801F00C03042B11D0082BAC
:100AA0000FD10C48C1F38343C903C05C0AD5516818
:100AB000084AC1F34041921E515C054A5043B0FBC5
:100AC000F1F07047044948437047000000100240AD
:100AD00000127A00D62A000800093D002DE9F84FDF
:100AE000040070D02078C04DC00749D06868C0F3BA
:100AF0008100012807D06868C0F38100022809D16D
:100B00006868C00306D52868800339D56068002866
:100B1000E7D035E06068B0F5803F0BD010B1B0F59C
:100B2000A02F11D0286820F480302860286820F495
:100B3000802002E0286840F480302860606890B12E
:100B4000FFF75AFE06460AE0286840F48020286035
:100B5000F0E700BFFFF750FE801B642873D82868B9
:100B60008003F7D50CE0FFF747FE064605E000BF1F
:100B7000FFF742FE801B6428F0D828688003F7D472
:100B800020789A4E80074FF001094FF0000839D5C0
:100B9000686810F00C0F07D06868C0F38100022865
:100BA00009D16868C00306D42868800714D5206975
:100BB000012808D110E02069B0B1C6F80090FFF715
:100BC0001BFE074605E00AE1FFF716FEC01B0228E0
:100BD000C4D828688007F7D52868616920F0F80034
:100BE00040EAC10028600DE0C6F80080FFF704FE6F
:100BF000074604E0FFF700FEC01B022823D8286840
:100C00008007F7D4207800072CD57948A169D9B19D
:100C1000C0F80090FFF7F0FD074604E0FFF7ECFD99
:100C2000C01B02280FD8686A8007F7D571484FF4B7
:100C3000FA510068B0FBF1F0009000BF0098411E2F
:100C40000091FAD20EE080E0C0F80080FFF7D4FDFA
:100C5000074604E0FFF7D0FDC01B022875D8686A7C
:100C60008007F7D42078400760D5E8690027C000E6
:100C700008D4E86940F08050E861E869012700F095
:100C8000805000905C480168C90513D40168834610
:100C900041F480710160FFF7AFFD824606E000BFBE
:100CA000FFF7AAFDA0EB0A0064284ED8DBF800008D
:100CB000C005F5D5E06801280AD008B1052813D091
:100CC000286A20F001002862286A20F0040002E06F
:100CD000286A40F001002862E06841F2883B98B140
:100CE000FFF78AFD82460BE0286A40F00400286284
:100CF000EEE700BFFFF780FDA0EB0A0159455AD887
:100D0000286A8007F6D50CE0FFF776FD824605E0FD
:100D1000FFF772FDA0EB0A0159454CD8286A8007FD
:100D2000F6D41FB1E86920F08050E861E06988B32B
:100D30006968C1F38101022944D00228C6F86080A5
:100D400004D0FFF759FD044638E034E0FFF754FDC6
:100D5000074604E0FFF750FDC01B02282BD8286887
:100D60008001F7D4206AB0F5803F05D16868A1689A
:100D700020F4003008436860D4E90801084369683A
:100D800021F4741108436860C6F86090FFF734FDE1
:100D9000044606E025E000BFFFF72EFD001B0228F9
:100DA00009D828688001F7D51BE000BFFFF724FDB4
:100DB000001B022802D90320BDE8F88F28688001B3
:100DC000F4D40EE00128F7D06868226A00F480317C
:100DD000914204D1616A00F47010884201D0012070
:100DE000EAE70020E8E7000000100240000042426D
:100DF000800442421C0000200070004010B5401EDC
:100E0000B0F1807F01D3012010BD4FF0E02460617C
:100E10000F21601701F043FC0020A0610720206132
:100E2000002010BD7047704710B590F83C20012A93
:100E300022D0012280F83C20CA688C6822F44072DB
:100E400022434C6822F4806222430C6822F4006240
:100E500022430C6922F4805222434C6922F400524E
:100E60002243C969002322F480420A4301684A648C
:100E700080F83C30002010BD022010BD70B590F805
:100E80003C20012A2CD0012480F83C40022280F82A
:100E90003D2003685A689D6822F070060A68324354
:100EA0005A60104B02689A420ED00F4B9A420BD0F8
:100EB000B2F1804F08D00D4B9A4205D00C4B9A42AC
:100EC00002D00C4B9A4204D1496825F080031943A3
:100ED000916080F83D40002180F83C10084670BDCC
:100EE000022070BD002C014000340140000400408D
:100EF00000080040000C004010B5040003D094F836
:100F00003D0010B107E0012010BD002084F83C0036
:100F1000204600F01FF8022084F83D00211D2068C3
:100F200001F022F9012084F8460084F83E0084F89C
:100F30003F0084F8400084F8410084F8420084F8BF
:100F4000430084F8440084F8450084F83D00002004
:100F500010BD000008B5174A01681748914207D133
:100F6000816941F400618161806900F400601EE0E4
:100F7000124A914211D1C16941F01001C161C069A9
:100F8000002200F0100000900F213620FFF798FC9F
:100F9000BDE808403620FFF785BC094A914207D1D9
:100FA000816941F400518161806900F40050009032
:100FB00008BD0000002C014000100240001000405D
:100FC0000034014090F83D10012901D00120704704
:100FD000022180F83D100168CA6842F00102CA602F
:100FE00000680E4988420ED00D4988420BD0B0F1FE
:100FF000804F08D00B49884205D00B49884202D067
:101000000A49884204D1816801F00701062903D00A
:10101000016841F00101016000207047002C01408F
:10102000003401400004004000080040000C004073
:1010300070B5044690F83C000025012817D0012621
:1010400084F83C60022084F83D002068826822F029
:10105000770222F47F4282600868502838D00DDC85
:1010600020284FD005DC90B3102811D14AE002208F
:1010700070BD302846D040280AD13BE060282FD0F0
:1010800070280DD0B0F5805F03D0B0F5005F12D0AE
:10109000012584F83D60002084F83C00284670BD9E
:1010A000CB68D1E90121206801F0B9F82068816896
:1010B00041F0770109E0CB68D1E90121206801F016
:1010C000AEF82068816841F480418160E1E719E071
:1010D000CA684968206801F077F95021206806E065
:1010E000CA684968206801F080F96021206801F031
:1010F000A0F8CEE7CA684968206801F065F9402188
:101100002068F4E7226801461046F0E72DE9F04137
:101110000D46040003D094F83D0018B108E001200A
:10112000BDE8F081002084F83C00204600F040F843
:10113000022084F83D002068816844F20702914350
:101140008160211D206801F00FF822689068916984
:10115000166A2B68AF69034340F20330814341EACA
:101160000721A868EF6908434FF6FC418843E96806
:1011700040EA0720014328692F6A000140EA07304E
:10118000084369686D6926F0220646EA0515294379
:1011900093602268906154F8460B0162012004F8C4
:1011A0001F09E0752076E0762077A0750020B7E76C
:1011B00070B586B0002500950195029503950068ED
:1011C00049494A4A4A4E4B4CB0F1804F22D04A4BD3
:1011D00098424ED1C86940F00200C861C86900F069
:1011E00002000490886940F00800886188696946B7
:1011F00000F008000490302000903046FFF7FAF924
:10120000606820F4406040F0E06040F4006060609E
:1012100006B070BDC86940F00100C861C86900F03F
:1012200001000490886940F004008861886900F03A
:1012300004000490886940F0080088618869694664
:1012400000F0080004904FF4004000901046FFF7B3
:10125000D1F90820CDE90005694630460295FFF72F
:10126000C9F9606820F4407040F0E06040F480709C
:10127000CDE7224B98421CD1C86940F00400C861F8
:10128000C86900F004000490886940F0200088617B
:101290008869694600F0200004904FF440500090A7
:1012A0001748FFF7A7F9606840F0E06040F480500D
:1012B000ADE7144B9842ABD1C86940F00800C86153
:1012C000C86900F008000490886940F00400886153
:1012D0008869694600F004000490032000901046DD
:1012E000FFF788F994E70000001002400008014071
:1012F000000C0140000001400004004000080040D4
:1013000000140140000C004070B590F83E600446A7
:1013100090F83F5090F8423090F84320022021B1DD
:1013200004290ED0012E1BD114E0012E18D1012B5F
:1013300016D184F83E0084F8420001220021206882
:1013400020E0012D0CD1012A0AD184F83F0084F855
:10135000430014E0012D03D1012B01D1012A01D05A
:10136000012070BD84F83E0084F83F0084F84200FC
:1013700084F8430001220021206800F043FF01228D
:101380000421206800F03EFF2068016841F001015F
:101390000160002070BD70472DE9F04104460068EF
:1013A000C66805694FF00007A90713D5B10711D525
:1013B000F91E01610120207720688069800720469E
:1013C00002D0FFF7E8FF04E000F0C8F8204600F084
:1013D0005AF92777680716D5700714D521686FF07A
:1013E00004000861022020772068806910F4407FA3
:1013F000204602D0FFF7CFFF04E000F0AFF8204610
:1014000000F041F92777280715D5300713D5216853
:101410006FF008000861042020772068C069800709
:10142000204602D0FFF7B7FF04E000F097F820460F
:1014300000F029F92777E80616D5F00614D52168BB
:101440006FF010000861082020772068C06910F450
:10145000407F204602D0FFF79EFF04E000F07EF8B8
:10146000204600F010F92777E80708D0F00706D0EB
:1014700021686FF001000861204600F05FF928063E
:1014800008D5300606D521686FF080000861204637
:10149000FFF7C8FC680608D5700606D521686FF00E
:1014A00040000861204600F051F9A8060AD5B006B0
:1014B00008D521686FF0200008612046BDE8F041A2
:1014C000FFF7B1BCBDE8F08100B585B00021009107
:1014D0000191029103911B4B02681B4802219A4221
:1014E0001BD1826942F0400282618069039100F061
:1014F000400004904FF4D440CDE900016946134800
:10150000FFF778F81248416821F0C00141F0E0612E
:1015100041F0C001416005B000BD0E4B9A42FAD1C6
:10152000826942F0100282618069039100F010002C
:1015300004904FF47070CDE9000169460648FFF74A
:1015400059F8E8E7002C0140001002400018014063
:10155000000001400034014000100140704770B5A8
:10156000044690F83C0000260D4601280FD00120CB
:1015700084F83C006AB1042A1DD0082A2FD00C2A16
:101580003FD00126002084F83C00304670BD022088
:1015900070BD206800F056FE2068816941F00801A6
:1015A00081612068816921F004018161206881697D
:1015B0002A69114311E0206800F074FE20688169F7
:1015C00041F4006181612068816921F48061816159
:1015D000206881692A6941EA02218161D2E7206895
:1015E00000F096FE2068C16941F00801C1612068E1
:1015F000C16921F00401C1612068C1692A691143F0
:1016000011E0206800F0B8FE2068C16941F4006173
:10161000C1612068C16921F48061C1612068C1692C
:101620002A6941EA0221C161ACE710B5040003D088
:1016300094F83D0010B107E0012010BD002084F8AF
:101640003C00204600F01EF8022084F83D00211DD9
:10165000206800F089FD012084F8460084F83E00EF
:1016600084F83F0084F8400084F8410084F8420088
:1016700084F8430084F8440084F8450084F83D0071
:10168000002010BD7047704710B50446022249B1D2
:1016900004290ED0082913D094F84100012816D04F
:1016A000012010BD94F83E000128F9D184F83E20B5
:1016B0000FE094F83F000128F2D184F83F2008E0C1
:1016C00094F840000128EBD184F8402001E084F830
:1016D00041200122206800F095FD13492068134A3B
:1016E000884201D0904203D1436C43F400434364E9
:1016F000206888420DD090420BD0B0F1804F08D0C6
:101700000B49884205D00B49884202D00A498842D9
:1017100004D1816801F00701062903D0016841F076
:1017200001010160002010BD002C01400034014087
:101730000004004000080040000C004002498842BC
:1017400001D101F0DDB87047880100207047704773
:1017500070470000F8B5016804460868CA684B691C
:1017600010F00F0F4FF0000559D003F0010602F4FE
:101770009077374365D0C10705D0D10503D5616C9B
:1017800041F001016164410705D5D90703D0616CBF
:1017900041F002016164810705D5D90703D0616C6E
:1017A00041F004016164010707D502F020013143D3
:1017B00003D0616C41F008016164616C00293AD08A
:1017C000800604D5900602D5204600F04FFE206822
:1017D0004069616CC0F38010090700D460B32046F3
:1017E00000F01DFE20684069400621D520681430B5
:1017F00050E8001F21F0400140E80012002AF5D116
:10180000E06BA8B16D494163E06BFEF75BFE002819
:1018100011D0E06B416B01B0BDE8F0400847830692
:101820000FD593060DD52046BDE8F84000F01EBE4A
:101830002046FFF78DFFF8BD2046FFF789FF65645E
:10184000F8BD266B2023012E7CD1C6067AD5D6069C
:1018500078D508684868009048694FF0020640064D
:1018600040D5E16B086840680004000CE8D0A28D08
:101870008242E5D9E085886920282DD020680C3087
:1018800050E8001F21F4807140E80012002AF5D1D1
:101890002068143050E8001F21F0010140E80012D8
:1018A000002AF5D12068143050E8001F21F04001D3
:1018B00040E80012002AF5D184F842302563206800
:1018C0000C3050E8001F21F0100140E80012002AFF
:1018D000F5D1E06BFEF7D3FD6663A08DE18D401A74
:1018E00081B22AE0A08DE18D401A81B2E08D0028FE
:1018F000A6D00029A4D022680C3252E8000F20F4B0
:10190000907042E80007002FF5D12068143050E8AD
:10191000002F22F0010240E80027002FF5D184F8C3
:101920004230256320680C3050E8002F22F010026E
:1019300040E80023002BF5D166632046FFF707FF40
:10194000F8BDFFE705062BD5150629D594F841000B
:101950002128F5D1A068B0F5805F01D12069B0B130
:10196000206A411C2162216800784860E08C401E9A
:101970000004000CE084E3D12068C16821F08001FC
:10198000C1602068C16841F04001C160D8E7206AA9
:101990000088C0F308004860206A801C2062E5E7E8
:1019A0004006CDD55006CBD5CA68204622F040026D
:1019B000CA6084F8413000F0E7F8C1E70F2400085E
:1019C00070B5040004D094F84100002510B106E081
:1019D000012070BD84F84050204600F023F82420F8
:1019E00084F841002068C16821F40051C16020469C
:1019F00000F09EFD2068016921F49041016120689A
:101A0000416921F02A0141612068C16841F4005117
:101A1000C1606564202084F8410084F84200656359
:101A2000002070BD30B585B000240094019402946C
:101A300003940068184988422CD11848816941F400
:101A400080418161816901F480410491816941F0A3
:101A5000040181618069124D00F0040004904FF48C
:101A600000700090022001900320039069462846F0
:101A7000FEF7C0FD2815CDE900046946284602940A
:101A8000FEF7B8FD002211462520FEF719FF25209C
:101A9000FEF708FF05B030BD0038014000100240DD
:101AA0000008014090F84230202B01D002207047FE
:101AB00021B11AB10023036300F096BD01207047E5
:101AC00010B5012206490748FFF7ECFFBDE81040BA
:101AD0004FF6FF7301220249024800F005B80000EA
:101AE0000C000020180200202DE9F843044690F86D
:101AF0004100984616460D46202802D00220BDE837
:101B0000F88385B17EB100206064212084F8410013
:101B1000FEF772FEA6848146E684A0682027B0F511
:101B2000805F02D003E00120E9E7206910B12E4672
:101B300000250EE000260CE08021204600F06FFD1D
:101B4000A8B9C6B116F8010B21684860E08C401EA8
:101B5000E084E08C4B464FF00002CDF80080002876
:101B6000EAD14FF04001204600F059FD40B184F821
:101B700041700320C3E735F8020BC0F30800E3E728
:101B800084F841700020BAE77047FEE710B586B0D0
:101B900000242648019402940394816941F00401D1
:101BA0008161816901F004010491816941F0800142
:101BB0008161816901F080010491816941F4807142
:101BC0008161816901F480710491816941F0400172
:101BD0008161816901F040010491816941F0200136
:101BE0008161816901F020010491816941F0100156
:101BF0008161816901F010010491816941F008015E
:101C000081618069694600F0080004904FF46040EB
:101C100000900748FEF7EEFC0120CDE9000469467C
:101C200004480294FEF7E6FC06B010BD0010024026
:101C3000001C01400020014010B596B000240F9414
:101C400010941194129413941C2168461494FEF776
:101C500092FA202107A8FEF78EFA34483249C0E9EB
:101C6000001440F60F61C0E90241046144618461DF
:101C7000FFF742F908B1FEF700FC4FF480500F90D7
:101C80000FA92A48FFF7D4F908B1FEF7F6FB274859
:101C9000FFF7CBFC08B1FEF7F0FB139413A9234820
:101CA0001494FFF7EBF808B1FEF7E7FB6020CDE9ED
:101CB00000040294039404940594002269461B488E
:101CC0000694FFF74CFC08B1FEF7D7FB04226946E7
:101CD0001648FFF744FC08B1FEF7CFFB082269461F
:101CE0001248FFF73CFC08B1FEF7C7FB0C2269461F
:101CF0000E48FFF734FC08B1FEF7BFFB07940894C9
:101D000009944FF400500A94CDE90B4007A9074805
:101D10000E94FFF789F808B1FEF7AFFB0348FFF711
:101D2000D3FB16B010BD0000002C014020000020A5
:101D300010B58CB024216846FEF71DFA0024154822
:101D400009944FF080410A94C0E900144FF6FF71E6
:101D5000C0E90241046184610320CDE9000401204F
:101D6000CDE902040494CDE9054007946946094889
:101D70000894FFF7CBF908B1FEF77FFB099409A996
:101D800004480A94FFF77AF8002801D0FEF775FBA3
:101D90000CB010BD6800002010B58CB0242168463E
:101DA000FEF7E9F900241648099414490A94C0E999
:101DB00000144FF6FF71C0E9024104618461032001
:101DC000CDE900040120CDE902040494CDE90540E9
:101DD000079469460A480894FFF798F908B1FEF796
:101DE0004CFB099409A906480A94FFF747F8002814
:101DF00001D0FEF742FB0CB010BD00000004004013
:101E0000B000002010B58CB024216846FEF7B3F96D
:101E100000241648099414490A94C0E900144FF6A6
:101E2000FF71C0E90241046184610320CDE900042F
:101E30000120CDE902040494CDE9054007946946E8
:101E40000A480894FFF762F908B1FEF716FB0994F7
:101E500009A906480A94FFF711F8002801D0FEF7F7
:101E60000CFB0CB010BD000000080040F800002082
:101E700010B58CB024216846FEF77DF90024164881
:101E8000099414490A94C0E900144FF6FF71C0E99F
:101E90000241046184610320CDE900040120CDE901
:101EA00002040494CDE90540079469460A48089461
:101EB000FFF72CF908B1FEF7E0FA099409A90648E2
:101EC0000A94FEF7DBFF002801D0FEF7D6FA0CB02B
:101ED00010BD0000000C0040400100201CB5002493
:101EE0000F4800940D490194016041F61F41C0E97B
:101EF000011440F2E731C16080218161FEF7FCFFEF
:101F000008B1FEF7BAFA0094694605480194FEF755
:101F1000B5FF002801D0FEF7B0FA1CBD001000404C
:101F20008801002010B596B000240F9410941194ED
:101F3000129413941C2168461494FEF71CF9202176
:101F400007A8FEF718F934483249C0E9001440F6F2
:101F50000F61C0E90241046144618461FEF7CCFF76
:101F600008B1FEF78AFA4FF480500F900FA92A4863
:101F7000FFF75EF808B1FEF780FA2748FFF755FB38
:101F800008B1FEF77AFA139413A923481494FEF7C4
:101F900075FF08B1FEF771FA6020CDE900040294E4
:101FA000039404940594002269461B480694FFF7A5
:101FB000D6FA08B1FEF761FA042269461648FFF71F
:101FC000CEFA08B1FEF759FA082269461248FFF71F
:101FD000C6FA08B1FEF751FA0C2269460E48FFF71F
:101FE000BEFA08B1FEF749FA0794089409944FF431
:101FF00000500A94CDE90B4007A907480E94FEF75C
:1020000013FF08B1FEF739FA0348FFF75DFA16B07F
:1020100010BD000000340140D00100200C4810B574
:102020000A4901604FF4E1314160002181600C22D6
:10203000C160C0E904128161C161FFF7C1FC0028E1
:1020400003D0BDE81040FEF718BA10BD00380140BB
:1020500018020020FEE7000010B50023002902DD71
:1020600001F5C86102E00BDAA1F5C8610AB24FF4CC
:1020700061618A4202DA49428A4202DC0A4600E091
:102080001A4619490C6868B1012814D0174902286A
:102090000C6819D0032804D1002A20DBE263086809
:1020A000036410BD504200B2002801DB60630EE003
:1020B0006363404210E0504200B2002801DBE0635D
:1020C000EDE7E36340420CE0002A03DB626308684B
:1020D000836310BD636350420968886310BDE36386
:1020E00050420968086410BDD00100202000002083
:1020F000FEE770477047FEF785BB30B58FB02821EB
:102100006846FEF738F814210AA8FEF734F80121D2
:102110000804CDE900100024029402250491CDE9C1
:1021200007504FF4E01009906846FEF7D7FC08B15D
:1021300072B6FEE70F20CDE90A054FF48060CDE9C5
:102140000C4002210AA80E94FEF7ECFB002801D0F7
:1021500072B6FEE70FB030BD704700000148FFF7D0
:102160001BB9000088010020F0B50268204C214D09
:10217000214E224F224B4FF0804CA04209D0984272
:1021800007D0604505D0A84203D0B04201D0B84284
:1021900004D122F0700E4A6842EA0E02A04209D031
:1021A000984207D0604505D0A84203D0B04201D084
:1021B000B84203D122F44075CA682A434D6922F01F
:1021C00080022A4302608A68C2620A688262A04270
:1021D00001D0984201D1096901630121416101697E
:1021E000C90703D0016921F001010161F0BD0000C0
:1021F000002C01400004004000080040000C00409A
:102200000034014010B501F01F030121046A994018
:102210008C430462016A9A401143016210BD10B5FB
:10222000846842EA032224F47F440A432243826002
:1022300010BD826822F070020A4342F007018160FB
:1022400070470000F0B5036A026A22F001020262E0
:1022500042688469124E24F073050C682C4323F005
:1022600002058B682B430D4DA84201D0B04205D129
:1022700023F00807CB683B4323F00403A84201D0B6
:10228000B04205D14D6922F4407215438A692A4350
:1022900042608461496841630362F0BD002C0140E3
:1022A00000340140F0B5026A036A23F010030362B0
:1022B000436884690D6824F4E64444EA05248D6883
:1022C00022F0200242EA05120F4D104EA84201D022
:1022D000B04206D1CF6822F0800242EA071222F013
:1022E0004002A84201D0B04207D14D6923F44063B7
:1022F00043EA85038D6943EA850343608461496845
:1023000081630262F0BD0000002C014000340140F6
:10231000F0B5026A036A23F4807303624368C469F8
:1023200022F4007224F073050C68124E2C438D6861
:1023300042EA05220E4DA84201D0B04206D1CF6834
:1023400022F4006242EA072222F48062A84201D00D
:10235000B04207D14D6923F4405343EA05138D6918
:1023600043EA05134360C4614968C1630262F0BD7A
:10237000002C01400034014030B5046A026A22F4A6
:10238000805202624268C3690D6823F4E64343EA5F
:1023900005238D6824F4005444EA0534084DA8420E
:1023A00002D0084DA84204D14D6922F4804242EA8D
:1023B00085124260C36149680164046230BD000057
:1023C000002C01400034014010B5036A046A24F077
:1023D00001040462846924F0F00444EA021423F046
:1023E0000A020A438461026210BD10B5036A046ADE
:1023F00024F010040462846923F0A00324F47044E0
:1024000044EA023243EA01118261016210BD10B553
:10241000406A0021C185C184FFF79AF910BD0168A7
:102420000C3151E8002F22F4907241E80023002B78
:10243000F5D10168143151E8002F22F0010241E882
:102440000023002BF5D1016B012909D101680C3162
:1024500051E8002F22F0100241E80023002BF5D1B3
:10246000202180F8421000210163704708B590F8E0
:102470004210222901D0022008BD82684FF4805307
:102480009A4201D1016921B1816A9A421BD04AB1B5
:102490000AE00268816A5268C2F308020A80816A0F
:1024A000891C08E0026972B10268526802F07F027A
:1024B0000A70816A491C8162C18D491E0904090C98
:1024C000C18503D01BE002685268F1E70168CA6861
:1024D00022F02002CA600168CA6822F48072CA60D1
:1024E00001684A6922F001024A61202180F8421005
:1024F00000214163026B012A03D0FFF7E1FA0020BB
:1025000008BD016301680C3151E8002F22F0100270
:1025100041E80023002BF5D101680A68D20602D5F4
:102520000A6849680091818DFFF711F9E7E700001B
:1025300070B5044600680169E26821F44051114316
:1025400001612169A0680843616908432168CA687C
:1025500041F20C639A430243CA6020684169A26950
:1025600021F44071114341611E492068884202D123
:10257000FEF77EFA01E0FEF76BFA00EBC00101EB1B
:102580000012606864218000B2FBF0F3B3FBF1F34A
:102590006FF018067343B2FBF0F5B2FBF0F605EBF3
:1025A0008305322303EB0515B5FBF1F5B6FBF1F618
:1025B00005F0F00505EB0615B2FBF0F6B2FBF0F006
:1025C000B0FBF1F06FF01802504306EB800003EB14
:1025D0000010B0FBF1F0216800F00F002844886083
:1025E00070BD00000038014081628285C2850021F3
:1025F0004164222180F84210016921B10168CA6852
:1026000042F48072CA6001684A6942F001024A617C
:102610000068C16841F02001C160002070472DE9C9
:10262000F843984617460D460446089E24E0701C61
:1026300022D0FEF7E1F8A0EB0800B0421AD8CEB1E4
:102640002068C168490717D5802D15D0402D13D0BB
:102650000168C94309070FD401680025406800904C
:102660002046FFF7DCFE0820606484F8405001201B
:10267000BDE8F8830320FBE72068006835EA000026
:1026800004D00020B842D2D00020F1E70120F9E7C1
:102690000148FFF75FB8000018020020FEE70907B5
:1026A000090E002804DB00F1E02080F800147047D8
:1026B00000F00F0000F1E02080F8141D704702E0E8
:1026C00008C8121F08C1002AFAD1704770470020BD
:1026D00001E001C1121F002AFBD1704770B50C4602
:1026E00001461D4616460020FFF7B6FC2146012094
:1026F000FFF7B2FC31460220FFF7AEFC2946BDE8E9
:1027000070400320FFF7A8BC2DE9FC4104460020DF
:10271000009001906846FDF79BFEBDF90000FDF7B3
:10272000FDFD1C4D2946FDF789FD1B49FDF786FD82
:102730001A4E3146FDF7B4FD2060BDF90200FDF7E9
:10274000EDFD2946FDF77AFD154F3946FDF776FD7B
:102750003146FDF7A5FD6060BDF90400FDF7DEFD23
:102760002946FDF76BFD3946FDF768FD3146FDF75B
:1027700097FDA060BDF90600FDF7D0FD2946FDF7E5
:102780005DFD3946FDF75AFD3146FDF789FDE060F4
:10279000BDE8FC8100002041F8334C430000824436
:1027A00039344B43FEF736F8FFF7A7FCFFF7EEF995
:1027B000FFF742FAFFF7BCFAFFF7EEFAFFF722FB4A
:1027C000FFF756FBFFF7AEFBFFF788FBFFF726FC92
:1027D00000211A48FEF758FF04211848FEF754FF5D
:1027E00008211648FEF750FF0C211448FEF74CFF55
:1027F00000211348FEF748FF04211148FEF744FF6B
:1028000008210F48FEF740FF0C210D48FEF73CFF62
:1028100004210C48FEF778FD04210B48FEF774FDF7
:1028200004210A48FEF770FD04210948FEF76CFDFB
:102830000848FEF7C7FBFDF7DDFDFEE7200000209E
:10284000D001002068000020B0000020F800002027
:1028500040010020880100202DE9F0419846101A1F
:10286000079CFDF75BFD002706463D46B8F1000FCB
:1028700009D0B8F1010F0ED0B8F1020F13D0B8F1A2
:10288000030F18D01FE02768266031462069FDF746
:102890007DFC206116E06768666031466069FDF77F
:1028A00075FC60610EE0A768A6603146A069FDF77F
:1028B0006DFCA06106E0E768E6603146E069FDF77F
:1028C00065FCE061054639463046FDF7B1FC0B4C2E
:1028D000A168FDF7B3FC074629466068FDF7AEFC2A
:1028E000054631462068FDF7A9FC2946FDF74EFC58
:1028F0003946BDE8F041FDF749BC0000000000206A
:102900002DE9FE4F6F4C2068FDF711FD0FFA80F99D
:102910006068FDF70CFD0FFA80FAA068FDF707FD6F
:102920000FFA80FBE068FDF702FD00B2029020463E
:10293000FFF7EAFE644F4FF480413846FDF756FF3B
:10294000DFF8888104F1100540F2DC5630B94FF40D
:1029500000413846FDF74AFF012807D04FF4804177
:102960003846FDF743FF01282FD034E02068FDF7FB
:10297000DEFC00B2002342464946CDE90045FFF7A0
:102980006BFFFDF7D4FC07B26068FDF7D0FC00B226
:10299000012342465146CDE90045FFF75DFFA0689F
:1029A000FDF7C5FC00B20223B04632465946CDE9D8
:1029B0000045FFF751FFFDF7BAFC06B2E068FDF7EE
:1029C000B6FC00B20323424671E04FF400413846A2
:1029D000FDF70CFFE8B32068FDF7A9FC00B2002367
:1029E000B04632464946CDE90045FFF735FFFDF7D1
:1029F0009EFC06B26068FDF79AFC00B201234246D5
:102A00005146CDE90045FFF727FFA068FDF78FFC91
:102A100000B2022342465946CDE90045FFF71CFFAC
:102A2000FDF785FC07B2E068FDF781FC00B20323E7
:102A30004246CDE900450299FFF70EFFFDF777FC0E
:102A400003B23A4631460846FFF748FE0120BDE88A
:102A5000FE8FFFE72068FDF76AFC00B200233246D4
:102A60004946CDE90045FFF7F7FEFDF760FC07B2E8
:102A70006068FDF75CFC00B2012332465146CDE9A7
:102A80000045FFF7E9FEA068FDF751FC00B2022304
:102A900042465946CDE90045FFF7DEFEFDF747FC0B
:102AA00006B2E068FDF743FC094A00B20323CDE912
:102AB00000450299FFF7D0FEFDF739FC03B232461C
:102AC0003946C0E760020020001C014018FCFFFFEF
:102AD000ECFAFFFF010202030405060708090A0BCE
:102AE0000C0D0E0F1010000000000000000001028D
:102AF00003040607080900000000010203040000A7
:102B0000202B00080000002020000000BE26000846
:102B1000402B00082000002070060000CE26000890
:102B200000000040000000000000003F0000000026
:102B300001000000100000000000000000127A00F8
:0400000508000131BD
:00000001FF
